{
  "contractName": "AssetTracker",
  "abi": [
    {
      "anonymous": false,
      "inputs": [
        {
          "indexed": false,
          "internalType": "string",
          "name": "name",
          "type": "string"
        },
        {
          "indexed": false,
          "internalType": "string",
          "name": "add",
          "type": "string"
        },
        {
          "indexed": false,
          "internalType": "string",
          "name": "email",
          "type": "string"
        },
        {
          "indexed": false,
          "internalType": "string",
          "name": "phone",
          "type": "string"
        }
      ],
      "name": "RejectDistributor",
      "type": "event"
    },
    {
      "inputs": [],
      "name": "assetCount",
      "outputs": [
        {
          "internalType": "uint256",
          "name": "",
          "type": "uint256"
        }
      ],
      "stateMutability": "view",
      "type": "function",
      "constant": true
    },
    {
      "inputs": [],
      "name": "distributorCount",
      "outputs": [
        {
          "internalType": "uint256",
          "name": "",
          "type": "uint256"
        }
      ],
      "stateMutability": "view",
      "type": "function",
      "constant": true
    },
    {
      "inputs": [
        {
          "internalType": "string",
          "name": "name",
          "type": "string"
        },
        {
          "internalType": "string",
          "name": "add",
          "type": "string"
        },
        {
          "internalType": "string",
          "name": "email",
          "type": "string"
        },
        {
          "internalType": "string",
          "name": "phone",
          "type": "string"
        }
      ],
      "name": "insertDistributor",
      "outputs": [
        {
          "internalType": "bool",
          "name": "",
          "type": "bool"
        }
      ],
      "stateMutability": "nonpayable",
      "type": "function"
    },
    {
      "inputs": [
        {
          "internalType": "uint256",
          "name": "id",
          "type": "uint256"
        }
      ],
      "name": "getDistributorbyId",
      "outputs": [
        {
          "internalType": "string",
          "name": "",
          "type": "string"
        },
        {
          "internalType": "string",
          "name": "",
          "type": "string"
        },
        {
          "internalType": "string",
          "name": "",
          "type": "string"
        },
        {
          "internalType": "string",
          "name": "",
          "type": "string"
        }
      ],
      "stateMutability": "view",
      "type": "function",
      "constant": true
    },
    {
      "inputs": [],
      "name": "getAlldistributors",
      "outputs": [
        {
          "components": [
            {
              "internalType": "uint256",
              "name": "id",
              "type": "uint256"
            },
            {
              "internalType": "string",
              "name": "name",
              "type": "string"
            },
            {
              "internalType": "string",
              "name": "add",
              "type": "string"
            },
            {
              "internalType": "string",
              "name": "email",
              "type": "string"
            },
            {
              "internalType": "string",
              "name": "phone",
              "type": "string"
            }
          ],
          "internalType": "struct AssetTracker.Person[]",
          "name": "",
          "type": "tuple[]"
        }
      ],
      "stateMutability": "view",
      "type": "function",
      "constant": true
    },
    {
      "inputs": [
        {
          "internalType": "uint256",
          "name": "_amount",
          "type": "uint256"
        }
      ],
      "name": "balance",
      "outputs": [
        {
          "internalType": "bool",
          "name": "",
          "type": "bool"
        }
      ],
      "stateMutability": "pure",
      "type": "function",
      "constant": true
    },
    {
      "inputs": [
        {
          "internalType": "string",
          "name": "name",
          "type": "string"
        },
        {
          "internalType": "string",
          "name": "description",
          "type": "string"
        },
        {
          "internalType": "uint256",
          "name": "distributorId",
          "type": "uint256"
        },
        {
          "internalType": "uint256",
          "name": "cost",
          "type": "uint256"
        },
        {
          "internalType": "uint256",
          "name": "quantity",
          "type": "uint256"
        },
        {
          "internalType": "string",
          "name": "manufacturer",
          "type": "string"
        },
        {
          "internalType": "string",
          "name": "customer",
          "type": "string"
        },
        {
          "internalType": "string",
          "name": "addressFrom",
          "type": "string"
        },
        {
          "internalType": "string",
          "name": "addressTo",
          "type": "string"
        }
      ],
      "name": "createAsset",
      "outputs": [],
      "stateMutability": "nonpayable",
      "type": "function"
    },
    {
      "inputs": [
        {
          "internalType": "address",
          "name": "to",
          "type": "address"
        },
        {
          "internalType": "uint256",
          "name": "i",
          "type": "uint256"
        }
      ],
      "name": "transferAsset",
      "outputs": [],
      "stateMutability": "nonpayable",
      "type": "function"
    },
    {
      "inputs": [
        {
          "internalType": "uint256",
          "name": "i",
          "type": "uint256"
        }
      ],
      "name": "getItemByUUID",
      "outputs": [
        {
          "internalType": "uint256",
          "name": "cost",
          "type": "uint256"
        },
        {
          "internalType": "uint256",
          "name": "quantity",
          "type": "uint256"
        }
      ],
      "stateMutability": "view",
      "type": "function",
      "constant": true
    },
    {
      "inputs": [
        {
          "internalType": "address",
          "name": "owner",
          "type": "address"
        },
        {
          "internalType": "uint256",
          "name": "i",
          "type": "uint256"
        }
      ],
      "name": "isOwnerOf",
      "outputs": [
        {
          "internalType": "bool",
          "name": "",
          "type": "bool"
        }
      ],
      "stateMutability": "view",
      "type": "function",
      "constant": true
    },
    {
      "inputs": [],
      "name": "getAllAssets",
      "outputs": [
        {
          "components": [
            {
              "internalType": "string",
              "name": "name",
              "type": "string"
            },
            {
              "internalType": "string",
              "name": "description",
              "type": "string"
            },
            {
              "internalType": "uint256",
              "name": "cost",
              "type": "uint256"
            },
            {
              "internalType": "uint256",
              "name": "quantity",
              "type": "uint256"
            },
            {
              "internalType": "string",
              "name": "manufacturer",
              "type": "string"
            },
            {
              "internalType": "string",
              "name": "customer",
              "type": "string"
            },
            {
              "internalType": "string",
              "name": "addressFrom",
              "type": "string"
            },
            {
              "internalType": "string",
              "name": "addressTo",
              "type": "string"
            },
            {
              "internalType": "bool",
              "name": "initialized",
              "type": "bool"
            },
            {
              "internalType": "bool",
              "name": "arrived",
              "type": "bool"
            },
            {
              "internalType": "uint256",
              "name": "distributorId",
              "type": "uint256"
            }
          ],
          "internalType": "struct AssetTracker.Asset[]",
          "name": "",
          "type": "tuple[]"
        }
      ],
      "stateMutability": "view",
      "type": "function",
      "constant": true
    },
    {
      "inputs": [
        {
          "internalType": "uint256",
          "name": "i",
          "type": "uint256"
        }
      ],
      "name": "Arrived",
      "outputs": [],
      "stateMutability": "nonpayable",
      "type": "function"
    }
  ],
  "bytecode": "0x60806040526000600155600060025534801561001a57600080fd5b506123748061002a6000396000f3fe608060405234801561001057600080fd5b50600436106100b45760003560e01c8063ba1d899511610071578063ba1d89951461018d578063c5246353146101be578063c5b8f772146101dc578063c9469a4b1461020c578063eafe7a7414610228578063fdd0e4d714610246576100b4565b80631e78717d146100b95780632acada4d146100d55780633ac140e8146100f357806347bb89f0146101115780635c921eb914610141578063752493291461015d575b600080fd5b6100d360048036038101906100ce919061168a565b610279565b005b6100dd610480565b6040516100ea9190611a82565b60405180910390f35b6100fb610907565b6040516101089190611ab3565b60405180910390f35b61012b60048036038101906101269190611ace565b61090d565b6040516101389190611b0a565b60405180910390f35b61015b60048036038101906101569190611b83565b61095b565b005b61017760048036038101906101729190611bc3565b610b41565b6040516101849190611b0a565b60405180910390f35b6101a760048036038101906101a29190611ace565b610cea565b6040516101b5929190611c9a565b60405180910390f35b6101c6610d69565b6040516101d39190611e10565b60405180910390f35b6101f660048036038101906101f19190611b83565b611080565b6040516102039190611b0a565b60405180910390f35b61022660048036038101906102219190611ace565b6110f9565b005b61023061112b565b60405161023d9190611ab3565b60405180910390f35b610260600480360381019061025b9190611ace565b611131565b6040516102709493929190611e7c565b60405180910390f35b6040518061016001604052808a81526020018981526020018781526020018681526020018581526020018481526020018381526020018281526020016001151581526020016000151581526020018881525060036000600254815260200190815260200160002060008201518160000190805190602001906102fc9291906113ca565b5060208201518160010190805190602001906103199291906113ca565b506040820151816002015560608201518160030155608082015181600401908051906020019061034a9291906113ca565b5060a08201518160050190805190602001906103679291906113ca565b5060c08201518160060190805190602001906103849291906113ca565b5060e08201518160070190805190602001906103a19291906113ca565b506101008201518160080160006101000a81548160ff0219169083151502179055506101208201518160080160016101000a81548160ff02191690831515021790555061014082015181600901559050506001600460003373ffffffffffffffffffffffffffffffffffffffff1673ffffffffffffffffffffffffffffffffffffffff1681526020019081526020016000206000600254815260200190815260200160002060006101000a81548160ff0219169083151502179055506002600081548092919061047090611f0c565b9190505550505050505050505050565b6060600060025467ffffffffffffffff8111156104a05761049f611529565b5b6040519080825280602002602001820160405280156104d957816020015b6104c6611450565b8152602001906001900390816104be5790505b50905060005b6002548110156108ff576000600360008381526020019081526020016000209050806040518061016001604052908160008201805461051d90611f84565b80601f016020809104026020016040519081016040528092919081815260200182805461054990611f84565b80156105965780601f1061056b57610100808354040283529160200191610596565b820191906000526020600020905b81548152906001019060200180831161057957829003601f168201915b505050505081526020016001820180546105af90611f84565b80601f01602080910402602001604051908101604052809291908181526020018280546105db90611f84565b80156106285780601f106105fd57610100808354040283529160200191610628565b820191906000526020600020905b81548152906001019060200180831161060b57829003601f168201915b50505050508152602001600282015481526020016003820154815260200160048201805461065590611f84565b80601f016020809104026020016040519081016040528092919081815260200182805461068190611f84565b80156106ce5780601f106106a3576101008083540402835291602001916106ce565b820191906000526020600020905b8154815290600101906020018083116106b157829003601f168201915b505050505081526020016005820180546106e790611f84565b80601f016020809104026020016040519081016040528092919081815260200182805461071390611f84565b80156107605780601f1061073557610100808354040283529160200191610760565b820191906000526020600020905b81548152906001019060200180831161074357829003601f168201915b5050505050815260200160068201805461077990611f84565b80601f01602080910402602001604051908101604052809291908181526020018280546107a590611f84565b80156107f25780601f106107c7576101008083540402835291602001916107f2565b820191906000526020600020905b8154815290600101906020018083116107d557829003601f168201915b5050505050815260200160078201805461080b90611f84565b80601f016020809104026020016040519081016040528092919081815260200182805461083790611f84565b80156108845780601f1061085957610100808354040283529160200191610884565b820191906000526020600020905b81548152906001019060200180831161086757829003601f168201915b505050505081526020016008820160009054906101000a900460ff161515151581526020016008820160019054906101000a900460ff161515151581526020016009820154815250508383815181106108e0576108df611fb6565b5b60200260200101819052505080806108f790611f0c565b9150506104df565b508091505090565b60015481565b600060148210610952576040517f08c379a000000000000000000000000000000000000000000000000000000000815260040161094990612057565b60405180910390fd5b60019050919050565b6001151560036000600254815260200190815260200160002060080160009054906101000a900460ff161515146109c7576040517f08c379a00000000000000000000000000000000000000000000000000000000081526004016109be906120c3565b60405180910390fd5b60011515600460003373ffffffffffffffffffffffffffffffffffffffff1673ffffffffffffffffffffffffffffffffffffffff168152602001908152602001600020600083815260200190815260200160002060009054906101000a900460ff16151514610a6b576040517f08c379a0000000000000000000000000000000000000000000000000000000008152600401610a629061212f565b60405180910390fd5b6000600460003373ffffffffffffffffffffffffffffffffffffffff1673ffffffffffffffffffffffffffffffffffffffff168152602001908152602001600020600083815260200190815260200160002060006101000a81548160ff0219169083151502179055506001600460008473ffffffffffffffffffffffffffffffffffffffff1673ffffffffffffffffffffffffffffffffffffffff168152602001908152602001600020600083815260200190815260200160002060006101000a81548160ff0219169083151502179055505050565b600080600090505b600154811015610c0757604051602001610b62906121a6565b60405160208183030381529060405280519060200120600080838152602001908152602001600020600301604051602001610b9d919061224f565b604051602081830303815290604052805190602001201415610bf4576040517f08c379a0000000000000000000000000000000000000000000000000000000008152600401610beb906122b2565b60405180910390fd5b8080610bff90611f0c565b915050610b49565b506040518060a001604052806001548152602001868152602001858152602001848152602001838152506000806001548152602001908152602001600020600082015181600001556020820151816001019080519060200190610c6b9291906113ca565b506040820151816002019080519060200190610c889291906113ca565b506060820151816003019080519060200190610ca59291906113ca565b506080820151816004019080519060200190610cc29291906113ca565b5090505060016000815480929190610cd990611f0c565b919050555060019050949350505050565b600080600254831115610d32576040517f08c379a0000000000000000000000000000000000000000000000000000000008152600401610d299061231e565b60405180910390fd5b6003600084815260200190815260200160002060020154600360008581526020019081526020016000206003015491509150915091565b6060600060015467ffffffffffffffff811115610d8957610d88611529565b5b604051908082528060200260200182016040528015610dc257816020015b610daf6114ae565b815260200190600190039081610da75790505b50905060005b6001548110156110785760008060008381526020019081526020016000209050806040518060a001604052908160008201548152602001600182018054610e0e90611f84565b80601f0160208091040260200160405190810160405280929190818152602001828054610e3a90611f84565b8015610e875780601f10610e5c57610100808354040283529160200191610e87565b820191906000526020600020905b815481529060010190602001808311610e6a57829003601f168201915b50505050508152602001600282018054610ea090611f84565b80601f0160208091040260200160405190810160405280929190818152602001828054610ecc90611f84565b8015610f195780601f10610eee57610100808354040283529160200191610f19565b820191906000526020600020905b815481529060010190602001808311610efc57829003601f168201915b50505050508152602001600382018054610f3290611f84565b80601f0160208091040260200160405190810160405280929190818152602001828054610f5e90611f84565b8015610fab5780601f10610f8057610100808354040283529160200191610fab565b820191906000526020600020905b815481529060010190602001808311610f8e57829003601f168201915b50505050508152602001600482018054610fc490611f84565b80601f0160208091040260200160405190810160405280929190818152602001828054610ff090611f84565b801561103d5780601f106110125761010080835404028352916020019161103d565b820191906000526020600020905b81548152906001019060200180831161102057829003601f168201915b50505050508152505083838151811061105957611058611fb6565b5b602002602001018190525050808061107090611f0c565b915050610dc8565b508091505090565b6000600460008473ffffffffffffffffffffffffffffffffffffffff1673ffffffffffffffffffffffffffffffffffffffff168152602001908152602001600020600083815260200190815260200160002060009054906101000a900460ff16156110ee57600190506110f3565b600090505b92915050565b60016003600083815260200190815260200160002060080160016101000a81548160ff02191690831515021790555050565b60025481565b60608060608060008086815260200190815260200160002060010160008087815260200190815260200160002060020160008088815260200190815260200160002060030160008089815260200190815260200160002060040183805461119790611f84565b80601f01602080910402602001604051908101604052809291908181526020018280546111c390611f84565b80156112105780601f106111e557610100808354040283529160200191611210565b820191906000526020600020905b8154815290600101906020018083116111f357829003601f168201915b5050505050935082805461122390611f84565b80601f016020809104026020016040519081016040528092919081815260200182805461124f90611f84565b801561129c5780601f106112715761010080835404028352916020019161129c565b820191906000526020600020905b81548152906001019060200180831161127f57829003601f168201915b505050505092508180546112af90611f84565b80601f01602080910402602001604051908101604052809291908181526020018280546112db90611f84565b80156113285780601f106112fd57610100808354040283529160200191611328565b820191906000526020600020905b81548152906001019060200180831161130b57829003601f168201915b5050505050915080805461133b90611f84565b80601f016020809104026020016040519081016040528092919081815260200182805461136790611f84565b80156113b45780601f10611389576101008083540402835291602001916113b4565b820191906000526020600020905b81548152906001019060200180831161139757829003601f168201915b5050505050905093509350935093509193509193565b8280546113d690611f84565b90600052602060002090601f0160209004810192826113f8576000855561143f565b82601f1061141157805160ff191683800117855561143f565b8280016001018555821561143f579182015b8281111561143e578251825591602001919060010190611423565b5b50905061144c91906114dd565b5090565b6040518061016001604052806060815260200160608152602001600081526020016000815260200160608152602001606081526020016060815260200160608152602001600015158152602001600015158152602001600081525090565b6040518060a0016040528060008152602001606081526020016060815260200160608152602001606081525090565b5b808211156114f65760008160009055506001016114de565b5090565b6000604051905090565b600080fd5b600080fd5b600080fd5b600080fd5b6000601f19601f8301169050919050565b7f4e487b7100000000000000000000000000000000000000000000000000000000600052604160045260246000fd5b61156182611518565b810181811067ffffffffffffffff821117156115805761157f611529565b5b80604052505050565b60006115936114fa565b905061159f8282611558565b919050565b600067ffffffffffffffff8211156115bf576115be611529565b5b6115c882611518565b9050602081019050919050565b82818337600083830152505050565b60006115f76115f2846115a4565b611589565b90508281526020810184848401111561161357611612611513565b5b61161e8482856115d5565b509392505050565b600082601f83011261163b5761163a61150e565b5b813561164b8482602086016115e4565b91505092915050565b6000819050919050565b61166781611654565b811461167257600080fd5b50565b6000813590506116848161165e565b92915050565b60008060008060008060008060006101208a8c0312156116ad576116ac611504565b5b60008a013567ffffffffffffffff8111156116cb576116ca611509565b5b6116d78c828d01611626565b99505060208a013567ffffffffffffffff8111156116f8576116f7611509565b5b6117048c828d01611626565b98505060406117158c828d01611675565b97505060606117268c828d01611675565b96505060806117378c828d01611675565b95505060a08a013567ffffffffffffffff81111561175857611757611509565b5b6117648c828d01611626565b94505060c08a013567ffffffffffffffff81111561178557611784611509565b5b6117918c828d01611626565b93505060e08a013567ffffffffffffffff8111156117b2576117b1611509565b5b6117be8c828d01611626565b9250506101008a013567ffffffffffffffff8111156117e0576117df611509565b5b6117ec8c828d01611626565b9150509295985092959850929598565b600081519050919050565b600082825260208201905092915050565b6000819050602082019050919050565b600081519050919050565b600082825260208201905092915050565b60005b83811015611862578082015181840152602081019050611847565b83811115611871576000848401525b50505050565b600061188282611828565b61188c8185611833565b935061189c818560208601611844565b6118a581611518565b840191505092915050565b6118b981611654565b82525050565b60008115159050919050565b6118d4816118bf565b82525050565b60006101608301600083015184820360008601526118f88282611877565b915050602083015184820360208601526119128282611877565b915050604083015161192760408601826118b0565b50606083015161193a60608601826118b0565b50608083015184820360808601526119528282611877565b91505060a083015184820360a086015261196c8282611877565b91505060c083015184820360c08601526119868282611877565b91505060e083015184820360e08601526119a08282611877565b9150506101008301516119b76101008601826118cb565b506101208301516119cc6101208601826118cb565b506101408301516119e16101408601826118b0565b508091505092915050565b60006119f883836118da565b905092915050565b6000602082019050919050565b6000611a18826117fc565b611a228185611807565b935083602082028501611a3485611818565b8060005b85811015611a705784840389528151611a5185826119ec565b9450611a5c83611a00565b925060208a01995050600181019050611a38565b50829750879550505050505092915050565b60006020820190508181036000830152611a9c8184611a0d565b905092915050565b611aad81611654565b82525050565b6000602082019050611ac86000830184611aa4565b92915050565b600060208284031215611ae457611ae3611504565b5b6000611af284828501611675565b91505092915050565b611b04816118bf565b82525050565b6000602082019050611b1f6000830184611afb565b92915050565b600073ffffffffffffffffffffffffffffffffffffffff82169050919050565b6000611b5082611b25565b9050919050565b611b6081611b45565b8114611b6b57600080fd5b50565b600081359050611b7d81611b57565b92915050565b60008060408385031215611b9a57611b99611504565b5b6000611ba885828601611b6e565b9250506020611bb985828601611675565b9150509250929050565b60008060008060808587031215611bdd57611bdc611504565b5b600085013567ffffffffffffffff811115611bfb57611bfa611509565b5b611c0787828801611626565b945050602085013567ffffffffffffffff811115611c2857611c27611509565b5b611c3487828801611626565b935050604085013567ffffffffffffffff811115611c5557611c54611509565b5b611c6187828801611626565b925050606085013567ffffffffffffffff811115611c8257611c81611509565b5b611c8e87828801611626565b91505092959194509250565b6000604082019050611caf6000830185611aa4565b611cbc6020830184611aa4565b9392505050565b600081519050919050565b600082825260208201905092915050565b6000819050602082019050919050565b600060a083016000830151611d0760008601826118b0565b5060208301518482036020860152611d1f8282611877565b91505060408301518482036040860152611d398282611877565b91505060608301518482036060860152611d538282611877565b91505060808301518482036080860152611d6d8282611877565b9150508091505092915050565b6000611d868383611cef565b905092915050565b6000602082019050919050565b6000611da682611cc3565b611db08185611cce565b935083602082028501611dc285611cdf565b8060005b85811015611dfe5784840389528151611ddf8582611d7a565b9450611dea83611d8e565b925060208a01995050600181019050611dc6565b50829750879550505050505092915050565b60006020820190508181036000830152611e2a8184611d9b565b905092915050565b600082825260208201905092915050565b6000611e4e82611828565b611e588185611e32565b9350611e68818560208601611844565b611e7181611518565b840191505092915050565b60006080820190508181036000830152611e968187611e43565b90508181036020830152611eaa8186611e43565b90508181036040830152611ebe8185611e43565b90508181036060830152611ed28184611e43565b905095945050505050565b7f4e487b7100000000000000000000000000000000000000000000000000000000600052601160045260246000fd5b6000611f1782611654565b91507fffffffffffffffffffffffffffffffffffffffffffffffffffffffffffffffff821415611f4a57611f49611edd565b5b600182019050919050565b7f4e487b7100000000000000000000000000000000000000000000000000000000600052602260045260246000fd5b60006002820490506001821680611f9c57607f821691505b60208210811415611fb057611faf611f55565b5b50919050565b7f4e487b7100000000000000000000000000000000000000000000000000000000600052603260045260246000fd5b7f42616c616e6365206e65656420746f2062652067726561746572207468616e2060008201527f3230000000000000000000000000000000000000000000000000000000000000602082015250565b6000612041602283611e32565b915061204c82611fe5565b604082019050919050565b6000602082019050818103600083015261207081612034565b9050919050565b7f4e6f206173736574207769746820746869732055554944206578697374730000600082015250565b60006120ad601e83611e32565b91506120b882612077565b602082019050919050565b600060208201905081810360008301526120dc816120a0565b9050919050565b7f53656e64657220646f6573206e6f74206f776e20746869732061737365742e00600082015250565b6000612119601f83611e32565b9150612124826120e3565b602082019050919050565b600060208201905081810360008301526121488161210c565b9050919050565b600081905092915050565b7f31323340676d61696c2e636f6d00000000000000000000000000000000000000600082015250565b6000612190600d8361214f565b915061219b8261215a565b600d82019050919050565b60006121b182612183565b9150819050919050565b60008190508160005260206000209050919050565b600081546121dd81611f84565b6121e7818661214f565b94506001821660008114612202576001811461221357612246565b60ff19831686528186019350612246565b61221c856121bb565b60005b8381101561223e5781548189015260018201915060208101905061221f565b838801955050505b50505092915050565b600061225b82846121d0565b915081905092915050565b7f4469737472696275746f7220616c726561647920657869737473000000000000600082015250565b600061229c601a83611e32565b91506122a782612266565b602082019050919050565b600060208201905081810360008301526122cb8161228f565b9050919050565b7f417373657420646f6573206e6f74206578697374730000000000000000000000600082015250565b6000612308601583611e32565b9150612313826122d2565b602082019050919050565b60006020820190508181036000830152612337816122fb565b905091905056fea2646970667358221220758510daaab40f25f8263946b846ca993647fd0742255d57382dec4003fded3c64736f6c63430008090033",
  "immutableReferences": {},
  "source": "// SPDX-License-Identifier: GPL-3.0\r\n\r\npragma solidity ^0.8.0;\r\n\r\n\r\ncontract AssetTracker {\r\n   \r\n    struct Asset {\r\n    string name;\r\n    string description;\r\n    uint cost;\r\n    uint quantity;\r\n    string manufacturer;\r\n    string customer;\r\n    string addressFrom;\r\n    string addressTo;\r\n    bool initialized;    \r\n    bool arrived;\r\n    uint distributorId;\r\n}\r\n\r\n struct Person{ //struct for distributor\r\n        uint id;\r\n        string name;\r\n        string add;\r\n        string email;\r\n        string phone;\r\n    }\r\n\r\n    mapping(uint  => Person) private distributorStruct;\r\n    uint public distributorCount=0;\r\n    uint public assetCount=0;\r\n\r\n    event RejectDistributor(string  name,string  add,string  email,string  phone);\r\n\r\n     function insertDistributor(string memory name,string memory add,string memory email,string memory phone) public returns(bool)\r\n    {\r\n        for(uint i=0;i<distributorCount;i++){\r\n                require(keccak256(abi.encodePacked((distributorStruct[i].email))) != keccak256(abi.encodePacked((\"123@gmail.com\"))),\"Distributor already exists\");\r\n        }\r\n        distributorStruct[distributorCount]=Person(distributorCount,name,add,email,phone);\r\n        distributorCount++;\r\n        return true;\r\n    }\r\n\r\n    function getDistributorbyId(uint id)public view returns(string memory,string memory,string memory,string memory){\r\n        return (distributorStruct[id].name,distributorStruct[id].add,distributorStruct[id].email,distributorStruct[id].phone);\r\n    }\r\n\r\n    function getAlldistributors()public view returns (Person[] memory){\r\n      Person[]   memory id = new Person[](distributorCount);\r\n      for (uint i = 0; i < distributorCount; i++) {\r\n          Person storage member = distributorStruct[i];\r\n          id[i] = member;\r\n      }\r\n      return id;\r\n    }\r\n\r\n    function balance(uint _amount) public pure returns(bool){\r\n        require(_amount<20,\"Balance need to be greater than 20\");\r\n        return true;\r\n    }\r\n//end of distributor\r\n\r\nmapping(uint  => Asset) private assetStore;\r\n\r\n\r\nmapping(address => mapping(uint => bool)) private walletStore;\r\n\r\n\r\n\r\n\r\nfunction createAsset(string memory name, string memory description, uint distributorId,uint cost,uint quantity, string memory manufacturer,string memory customer ,string memory addressFrom,string memory addressTo) public {\r\n      \r\n    \r\n      assetStore[assetCount] = Asset(name, description,cost,quantity,manufacturer,customer,addressFrom,addressTo,true,false,distributorId);\r\n      walletStore[msg.sender][assetCount] = true;\r\n      assetCount++;\r\n    \r\n}\r\n\r\n\r\nfunction transferAsset(address to, uint i) public{\r\n    require(assetStore[assetCount].initialized==true,\"No asset with this UUID exists\");\r\n\r\n \r\n    require(walletStore[msg.sender][i]==true,\"Sender does not own this asset.\");\r\n \r\n \r\n    walletStore[msg.sender][i] = false;\r\n    walletStore[to][i] = true;\r\n}\r\n\r\n\r\n function getItemByUUID(uint i) public view returns(uint cost,uint quantity){\r\n        require(i<=assetCount,\"Asset does not exists\");\r\n        return (assetStore[i].cost,assetStore[i].quantity);\r\n}\r\n\r\nfunction isOwnerOf(address owner, uint i) public view returns (bool) {\r\n \r\n    if(walletStore[owner][i]) {\r\n        return true;\r\n    }\r\n    return false;\r\n}\r\n\r\nfunction getAllAssets() public view returns(Asset[] memory){\r\n    Asset[]   memory x = new Asset[](assetCount);\r\n      for (uint i = 0; i < assetCount; i++) {\r\n          Asset storage member = assetStore[i];\r\n          x[i] = member;\r\n      }\r\n      return x;\r\n}\r\n\r\n//consumer end \r\n\r\nfunction Arrived(uint i) public { \r\n   assetStore[i].arrived=true;\r\n}\r\n\r\n\r\n}",
  "sourcePath": "C:\\Users\\shiva\\OneDrive\\Desktop\\FUND\\contracts\\AssetTracker.sol",
  "compiler": {
    "name": "solc",
    "version": "0.8.9+commit.e5eed63a.Emscripten.clang"
  },
  "schemaVersion": "3.4.10",
  "updatedAt": "2023-05-05T17:08:03.979Z",
  "networkType": "ethereum",
  "devdoc": {
    "kind": "dev",
    "methods": {},
    "version": 1
  },
  "userdoc": {
    "kind": "user",
    "methods": {},
    "version": 1
  }
}